S010000053657373696F6E322E73726563FE
S11300000C942A000C9441000C943F000C943F0083
S11300100C943F000C943F000C943F000C943F0060
S11300200C943F000C943F000C943F000C943F0050
S11300300C943F000C943F000C943F000C943F0040
S11300400C943F000C943F000C943F000C943F0030
S11300500C943F0011241FBECFE5D8E0DEBFCDBF16
S113006010E0A0E6B0E0E2EBF6E002C005900D92ED
S1130070AC36B107D9F70E9444010C9457030C9491
S113008000001F920F920FB60F9211248F939F932B
S113009085B3809585BB83ED90E30197F1F700C0AC
S11300A000009F918F910F900FBE0F901F90189595
S11300B084B3806884BB85B38F7785BB08957894B7
S11300C00E94580081B38B7F81BB82B3846082BB62
S11300D080E48BBF83E085BF089592B39F70282F7F
S11300E0207F922B92BB92B39E7F92BB92B392607D
S11300F092BBE9EFF0E03197F1F700C0000092B352
S11301009D7F92BBF2E4FA95F1F700C022B330E18F
S1130110839FC0011124922F9F70892B82BB82B3CD
S1130120826082BB000082B38D7F82BB83EF91E04B
S11301300197F1F700C0000008958FEF81BB87BBE2
S113014087E893E10197F1F700C0000082E00E9484
S11301506D0088E20E946D008CE00E946D0086E0D4
S11301600E946D0081E00E946D0083EF91E0019791
S1130170F1F700C00000089592B39F70282F207FEC
S1130180922B92BB92B3916092BB92B3926092BB5A
S1130190E9EFF0E03197F1F700C0000092B39D7FE2
S11301A092BBF2E4FA95F1F700C022B330E1839FE9
S11301B0C0011124922F9F70892B82BB82B382606D
S11301C082BB000082B38D7F82BB83EF91E00197F5
S11301D0F1F700C0000008951F93CF93DF93EC0163
S11301E010E007C0FE01E80FF91F80810E94BC00E7
S11301F01F5F812F90E0FE0101900020E9F7319705
S1130200EC1BFD0B8E179F0768F3DF91CF911F91B5
S1130210089581E00E946D000895CF93DF93CDB7D8
S1130220DEB72A970FB6F894DEBF0FBECDBF4AE003
S1130230BE016F5F7F4F0E942203CE0101960E9490
S1130240EC002A960FB6F894DEBF0FBECDBFDF9147
S1130250CF9108951ABA80EC87B987E886B90895D2
S113026097B18F70982B97B986B1806486B9349B07
S1130270FECF84E68A95F1F724B185B190E0982FFA
S11302808827820F911D08950E949D000E942A01D3
S113029080E690E00E94EC002FE986E891E021508E
S11302A080409040E1F700C000000E9409010E94D4
S11302B05F0081E00E943001BC01990F880B990B0B
S11302C00E94290220E030E040E250E40E94B5029E
S11302D020E030E040E251E40E947F010E94F101FD
S11302E0CB010E940D012FE58AEE90E02150804061
S11302F09040E1F700C000000E940901DACF0E949B
S113030093010C947B020E94740258F00E946D02C7
S113031040F029F45F3F29F00C94640251110C94CD
S1130320AF020C946A020E948C0268F39923B1F321
S1130330552391F3951B550BBB27AA276217730707
S1130340840738F09F5F5F4F220F331F441FAA1F9B
S1130350A9F335D00E2E3AF0E0E832D09150504057
S1130360E695001CCAF72BD0FE2F29D0660F771F05
S1130370881FBB1F261737074807AB07B0E809F0EB
S1130380BB0B802DBF01FF2793585F4F3AF09E3F70
S1130390510578F00C9464020C94AF025F3FE4F3CF
S11303A0983ED4F3869577956795B795F7959F5FB3
S11303B0C9F7880F911D9695879597F90895E1E0FF
S11303C0660F771F881FBB1F621773078407BA075E
S11303D020F0621B730B840BBA0BEE1F88F7E095B9
S11303E008950E94F8016894B1110C94AF02089525
S11303F00E94940288F09F5798F0B92F9927B7511B
S1130400B0F0E1F0660F771F881F991F1AF0BA95B4
S1130410C9F714C0B13091F00E94AE02B1E0089562
S11304200C94AE02672F782F8827B85F39F0B93F54
S1130430CCF3869577956795B395D9F73EF4909567
S11304408095709561957F4F8F4F9F4F0895E894E5
S113045009C097FB3EF490958095709561957F4F08
S11304608F4F9F4F9923A9F0F92F96E9BB279395B6
S1130470F695879577956795B795F111F8CFFAF4C6
S1130480BB0F11F460FF1BC06F5F7F4F8F4F9F4FF7
S113049016C0882311F096E911C0772321F09EE855
S11304A0872F762F05C0662371F096E8862F70E0BB
S11304B060E02AF09A95660F771F881FDAF7880F95
S11304C09695879597F9089597F99F6780E870E066
S11304D060E008959FEF80EC089500240A941616B6
S11304E0170618060906089500240A94121613061E
S11304F0140605060895092E0394000C11F48823AC
S113050052F0BB0F40F4BF2B11F460FF04C06F5FC7
S11305107F4F8F4F9F4F089557FD9058440F551F9D
S113052059F05F3F71F04795880F97FB991F61F071
S11305309F3F79F087950895121613061406551FE8
S1130540F2CF4695F1DF08C0161617061806991F54
S1130550F1CF86957105610508940895E894BB2749
S113056066277727CB0197F908950E94C8020C9457
S11305707B020E946D0238F00E94740220F09523E1
S113058011F00C9464020C946A0211240C94AF02CE
S11305900E948C0270F3959FC1F3950F50E0551F94
S11305A0629FF001729FBB27F00DB11D639FAA27C4
S11305B0F00DB11DAA1F649F6627B00DA11D661F13
S11305C0829F2227B00DA11D621F739FB00DA11D34
S11305D0621F839FA00D611D221F749F3327A00DEE
S11305E0611D231F849F600D211D822F762F6A2F8A
S11305F011249F5750409AF0F1F088234AF0EE0FEF
S1130600FF1FBB1F661F771F881F91505040A9F71B
S11306109E3F510580F00C9464020C94AF025F3F3E
S1130620E4F3983ED4F3869577956795B795F79557
S1130630E7959F5FC1F7FE2B880F911D96958795CF
S113064097F90895BB274A3031F4992322F4BDE287
S1130650909581959F4F0C942E03BB27FB01552742
S1130660AA27880F991FAA1FA41710F0A41B83950B
S11306705051B9F7A05DAA3308F0A95DA193009782
S113068079F7B111B1931192CB010C944703DC01BA
S1130690FC01672F71917723E1F7329704C07C91B5
S11306A06D9370836291AE17BF07C8F30895F894F1
S10506B0FFCF76
S10F06B248656C6C6F204C4D3335000023
S9030000FC
