:100000000C942A000C943F000C943F000C943F0089
:100010000C943F000C943F000C943F000C943F0064
:100020000C943F000C943F000C943F000C943F0054
:100030000C943F000C943F000C943F000C943F0044
:100040000C943F000C943F000C943F000C943F0034
:100050000C943F0011241FBECFE5D8E0DEBFCDBF1A
:1000600010E0A0E6B0E0E6EBF2E002C005900D92F1
:10007000A637B107D9F70E943A010C9459010C94A4
:1000800000008FE087BB8FEF88BB8ABB0895CF93BA
:10009000E1E0F0E0C2E64AC098B361E070E00A2E09
:1000A00002C0660F771F0A94E2F7862F8095982387
:1000B00098BB24E030E02CC046B350E0022E02C0D2
:1000C000559547950A94E2F7842F817040FF0AC046
:1000D0001DC086B390E0022E02C0959587950A94C4
:1000E000E2F781708823A9F3FD01EE0FFF1FEE0FE9
:1000F000FF1FE05AFF4FC9010497E80FF91FC081A5
:1001000081E28A95F1F70000E0E0F0E02F5F3F4FD9
:10011000283031058CF288B3682B68BB119602C079
:10012000A0E0B0E0A430B1050CF4B6CF3097C1F731
:100130008C2FCF91089598B3909598BB92B39F70F0
:10014000282F207F922B92BB92B39E7F92BB92B3BB
:10015000926092BBE9EFF0E03197F1F700C0000048
:1001600092B39D7F92BBF2E4FA95F1F700C022B3FF
:1001700030E1839FC0011124922F9F70892B82BB95
:1001800082B3826082BB000082B38D7F82BB83EF2B
:1001900091E00197F1F700C0000008958FEF81BB57
:1001A00087BB87E893E10197F1F700C0000082E088
:1001B0000E949B0088E20E949B008CE00E949B00B2
:1001C00086E00E949B0081E00E949B0083EF91E00B
:1001D0000197F1F700C00000089592B39F70282F97
:1001E000207F922B92BB92B3916092BB92B39260AC
:1001F00092BBE9EFF0E03197F1F700C0000092B355
:100200009D7F92BBF2E4FA95F1F700C022B330E192
:10021000839FC0011124922F9F70892B82BB82B3D0
:10022000826082BB000082B38D7F82BB83EF91E04E
:100230000197F1F700C0000008951F93CF93DF935B
:10024000EC0110E007C0FE01E80FF91F80810E9459
:10025000ED001F5F812F90E0FE0101900020E9F783
:100260003197EC1BFD0B8E179F0768F3DF91CF9141
:100270001F9108950E94CE0080E790E00E941D012A
:100280002FE986E891E0215080409040E1F700C0DE
:10029000000081E00E949B000E9441000E944700F4
:1002A0000E94ED0087EA91E60197F1F700C0000097
:0602B000F5CFF894FFCF2A
:1002B6003738392F343536583132332D43303D2BCC
:0602C60048656C6C6F003E
:00000001FF
