S01600004D6F746F72735F73657373696F6E2E7372656327
S11300000C942A000C94C4000C945E000C943F00E1
S11300100C943F000C943F000C943F000C943F0060
S11300200C943F000C943F000C943F000C943F0050
S11300300C943F000C943F000C943F000C943F0040
S11300400C943F000C943F000C943F000C943F0030
S11300500C943F0011241FBECFE5D4E0DEBFCDBF1A
S113006010E0A0E6B0E0E6E9F7E002C005900D92EA
S1130070A236B107D9F70E9441000C94C9030C942D
S113008000000E94D3010E94E1010E9491000E949D
S113009007010E9490010E947A0082E390E00E948E
S11300A086000E9414010E9433010E9452010E94A2
S11300B071010E9496010E948600F3CF1F920F9255
S11300C00FB60F9211248F939F9398B382E08927E0
S11300D088BB98B384E0892788BB83ED90E30197BC
S11300E0F1F700C000009F918F910F900FBE0F9009
S11300F01F90189587B3866087BB88B3826088BBDE
S113010088B38B7F88BB0E94EF01089585369105E3
S113011018F40E94F701089580E090E00E94F7012E
S113012008950E940C02089560E070E080EA90E473
S11301300E941C022FEF8EE994E2215080409040EF
S1130140E1F700C00000089560E070E080EF90E403
S11301500E941C022FEF8EE994E2215080409040CF
S1130160E1F700C00000089560E070E080E291E4EF
S11301700E941C022FEF8EE994E2215080409040AF
S1130180E1F700C0000008951F920F920FB60F927E
S113019011242F933F934F935F936F937F938F9388
S11301A09F93AF93BF93EF93FF938091600081344B
S11301B031F40E94940082E48093600017C082347A
S11301C031F40E94A40083E4809360000FC0833460
S11301D031F40E94B40084E48093600007C0843446
S11301E029F40E94A40081E480936000FF91EF91C0
S11301F0BF91AF919F918F917F916F915F914F913B
S11302003F912F910F900FBE0F901F90189584B3BC
S1130210816084BB84B3826084BB84B3846084BB08
S113022084B3886084BB089585B3816085BB85B33E
S1130230886085BB2FEF87E893E121508040904090
S1130240E1F700C0000085B38E7F85BB85B3877F4F
S113025085BB2FEF81EE94E0215080409040E1F780
S113026000C00000089585B3816085BB85B38460B8
S113027085BB2FEF87E893E1215080409040E1F760
S113028000C0000085B38E7F85BB85B38B7F85BBA3
S11302902FEF81EE94E0215080409040E1F700C0C0
S11302A00000089585B3826085BB85B3846085BBF7
S11302B02FEF87E893E1215080409040E1F700C0A0
S11302C0000085B38D7F85BB85B38B7F85BB2FEF06
S11302D081EE94E0215080409040E1F700C000009E
S11302E0089585B3826085BB85B3886085BB2FEF95
S11302F087E893E1215080409040E1F700C000007E
S113030085B38D7F85BB85B3877F85BB2FEF81EE5A
S113031094E0215080409040E1F700C0000008952F
S11303208AB38E7F8ABB0E94B401089580E00E9444
S1130330BA01BC0180E090E00E94CE0220E030E0EF
S113034040E85EE30E945C0320E030E040E85BE3C9
S11303500E945C0320E030E048EC52E40E945C031D
S11303600E949F02CB010895789487E886B980E4BF
S113037087B9089597B18770982B97B986B180642F
S113038086B9349BFECF86B1806186B989EF90E04F
S11303900197F1F700C0000024B135B180E0932F3C
S11303A0820F911D0895789481B38B7F81BB82B3B2
S11303B0846082BB8BB780648BBF85B7836085BF45
S11303C0089581B3877F81BB82B3886082BB8BB77A
S11303D080688BBF85B78C6085BF7894089587B398
S11303E0886087BB12BE83B7836683BF0895BC0150
S11303F080E090E00E94CE0220E030E048EC52E43D
S11304000E942D0220E030E040E853E40E945C03A7
S11304100E949F026CBF08951DBC1CBC81B3806107
S113042081BB8EB58B618EBD8FB583628FBD83EC2E
S113043099E09BBD8ABD089520E030E048EC52E489
S11304400E942D0220E030E34CE155E40E945C035D
S11304500E949F0279BD68BD08950E9441020C94D8
S113046022030E941B0358F00E94140340F029F455
S11304705F3F29F00C940B0351110C9456030C9418
S113048011030E94330368F39923B1F3552391F3C5
S1130490951B550BBB27AA2762177307840738F0EF
S11304A09F5F5F4F220F331F441FAA1FA9F335D04C
S11304B00E2E3AF0E0E832D091505040E695001C00
S11304C0CAF72BD0FE2F29D0660F771F881FBB1FBA
S11304D0261737074807AB07B0E809F0BB0B802D98
S11304E0BF01FF2793585F4F3AF09E3F510578F0C4
S11304F00C940B030C9456035F3FE4F3983ED4F33F
S1130500869577956795B795F7959F5FC9F7880F97
S1130510911D9695879597F90895E1E0660F771FE9
S1130520881FBB1F621773078407BA0720F0621B7A
S1130530730B840BBA0BEE1F88F7E09508950E94A5
S11305403B0388F09F5798F0B92F9927B751B0F023
S1130550E1F0660F771F881F991F1AF0BA95C9F743
S113056014C0B13091F00E945503B1E008950C9489
S11305705503672F782F8827B85F39F0B93FCCF33C
S1130580869577956795B395D9F73EF490958095C0
S1130590709561957F4F8F4F9F4F0895E89409C0E0
S11305A097FB3EF490958095709561957F4F8F4FA2
S11305B09F4F9923A9F0F92F96E9BB279395F695B8
S11305C0879577956795B795F111F8CFFAF4BB0F36
S11305D011F460FF1BC06F5F7F4F8F4F9F4F16C09A
S11305E0882311F096E911C0772321F09EE8872F24
S11305F0762F05C0662371F096E8862F70E060E0E0
S11306002AF09A95660F771F881FDAF7880F969558
S1130610879597F9089597F99F6780E870E060E0FF
S113062008959FEF80EC089500240A941616170687
S113063018060906089500240A94121613061406CF
S113064005060895092E0394000C11F4882352F032
S1130650BB0F40F4BF2B11F460FF04C06F5F7F4FEA
S11306608F4F9F4F089557FD9058440F551F59F0D1
S11306705F3F71F04795880F97FB991F61F09F3F8B
S113068079F087950895121613061406551FF2CFB4
S11306904695F1DF08C0161617061806991FF1CF04
S11306A086957105610508940895E894BB2766272B
S11306B07727CB0197F908950E946F030C942203C6
S11306C00E94140338F00E941B0320F0952311F0BC
S11306D00C940B030C94110311240C9456030E94E4
S11306E0330370F3959FC1F3950F50E0551F629F3C
S11306F0F001729FBB27F00DB11D639FAA27F00D77
S1130700B11DAA1F649F6627B00DA11D661F829F9D
S11307102227B00DA11D621F739FB00DA11D621F82
S1130720839FA00D611D221F749F3327A00D611D9F
S1130730231F849F600D211D822F762F6A2F112481
S11307409F5750409AF0F1F088234AF0EE0FFF1FB4
S1130750BB1F661F771F881F91505040A9F79E3F0B
S1130760510580F00C940B030C9456035F3FE4F3A3
S1130770983ED4F3869577956795B795F795E79561
S11307809F5FC1F7FE2B880F911D9695879597F96A
S10907900895F894FFCF68
S105079641001C
S9030000FC
